:04000000803197288C
:100008007E14803120007F08F800911E92288231EA
:10001800A8228031F5007508F9007E2820000C140C
:100028000D30F700AF30F600C130F500F50B1A2897
:10003800F60B1A28F70B1A28000020000C1092283B
:1000480020008C140D30F700AF30F600C130F500F9
:10005800F50B2C28F60B2C28F70B2C280000200079
:100068008C10922820000C150D30F700AF30F600E8
:10007800C130F500F50B3E28F60B3E28F70B3E285D
:10008800000020000C11922820008C150D30F7007C
:10009800AF30F600C130F500F50B5028F60B5028AC
:1000A800F70B5028000020008C11922820000C1615
:1000B8000D30F700AF30F600C130F500F50B6228BF
:1000C800F60B6228F70B6228000020000C12922819
:1000D80020008C160D30F700AF30F600C130F50067
:1000E800F50B7428F60B7428F70B74280000200011
:1000F8008C1292287908413A03191228033A0319F5
:100108002428013A03193628073A03194828013ADE
:1001180003195A28033A03196C28922878082000F2
:10012800FF007E10090080319928F001F101F201E9
:10013800F301F401C1017E1020008231572A20000A
:100148002F08B3003008B4003108B5003208B600F3
:100158000630B335B40DB50DB60D890BAD2836088C
:10016800A3003508A2003408A1003308A0002F0816
:10017800B7003008B8003108B9003208BA000630B4
:10018800B735B80DB90DBA0D890BC428B709B80928
:10019800B909BA09B70A0319B80A0319B90A031938
:1001A800BA0A00303707A4002D30383DA500313099
:1001B800393DA60001303A3DA70081314D218031FB
:1001C80020002108BC002008BB0001303C020030A0
:1001D80003193B02031C37292F08B3003008B40069
:1001E8003108B5003208B6000430B335B40DB50D8A
:1001F800B60D890BF9283608A3003508A200340883
:10020800A1003308A0002F08B7003008B800310853
:10021800B9003208BA000430B735B80DB90DBA0DB7
:10022800890B1029B709B809B909BA09B70A031916
:10023800B80A0319B90A0319BA0A00303707A40023
:100248002D30383DA5003130393DA60001303A3D0A
:10025800A70081314D21803120002108BC002008F1
:10026800BB0023001E15013020003C02003003199A
:100278003B02031808003B0823009B001E129D1731
:1002880022009D131E1021008D1423001D169E169A
:1002980008002000AA01A31F5E29A009A109A2093C
:1002A800A309A00A0319A10A0319A20A0319A30A98
:1002B800AA01AA0AA71F6F29A409A509A609A709BF
:1002C800A40A0319A50A0319A60A0319A70A0130E3
:1002D800A8002808AA060030AE000030AD000030A3
:1002E800AC000030AB0023082204210420040319C9
:1002F800B829A901A90AA31B8D290130A035A10D90
:10030800A20DA30D890B82290130A8002808A9078E
:100318007F290130AB35AC0DAD0DAE0D890B8E29A3
:1003280023082702031DA22922082602031DA22949
:1003380021082502031DA22920082402031CAD2937
:100348002008A4022108A53B2208A63B2308A73BB6
:100358002B140130A336A20CA10CA00C890BAE29DA
:100368000130A902031D8D292A080319C629AB09E2
:10037800AC09AD09AE09AB0A0319AC0A0319AD0AF9
:100388000319AE0A2E08A3002D08A2002C08A1000C
:100398002B08A000080020000D1AEA297208031D86
:1003A800EA29433082318522813103302000A300BD
:1003B8008A30A2005630A100A10BE029A20BE02947
:1003C800A30BE0290032F201F20A08000D1E080012
:1003D8007203031D0800F201080020008D1A0C2A80
:1003E8007308031D0C2A4430823185228131033081
:1003F8002000A3008A30A2005630A100A10B022AD7
:10040800A20B022AA30B022A0032F301F30A080006
:100418008D1E08007303031D0800F3010800200067
:100428000D182E2A7008031D2E2A4130823185228C
:10043800823103302000A3008A30A2005630A10088
:10044800A10B242AA20B242AA30B242A0032F00190
:10045800F00A08000D1C08007003031D0800F001D5
:10046800080020008D19502A7108031D502A4230B7
:1004780082318522823103302000A3008A30A20015
:100488005630A100A10B462AA20B462AA30B462AE6
:100498000032F101F10A08008D1D08007103031DE7
:1004A8000800F101080082318F22823182317322E3
:1004B800823100302000B2000030B1002530B00099
:1004C8008030AF008031A32082318231A322823173
:1004D80082319D2282318231972282316C2A230017
:1004E8008D0121000D148D150D168D160D178D1704
:1004F800951324000D148D150D168D160D178D17D7
:1005080008002000A00023009E1C872A2000200845
:1005180023009A00080021000C108C100C118C117B
:100528000C128C1208008131CF2182318131F121E6
:1005380008008231132282318231352208002100DD
:0E05480091168B170B170800230019080800E6
:020000040001F9
:04000E0082F9FFDF95
:00000001FF
